{
  "_format": "hh-sol-artifact-1",
  "contractName": "MineClub",
  "sourceName": "contracts/MineClub.sol",
  "abi": [
    {
      "inputs": [],
      "stateMutability": "nonpayable",
      "type": "constructor"
    },
    {
      "anonymous": false,
      "inputs": [
        {
          "indexed": true,
          "internalType": "address",
          "name": "account",
          "type": "address"
        },
        {
          "indexed": true,
          "internalType": "address",
          "name": "operator",
          "type": "address"
        },
        {
          "indexed": false,
          "internalType": "bool",
          "name": "approved",
          "type": "bool"
        }
      ],
      "name": "ApprovalForAll",
      "type": "event"
    },
    {
      "anonymous": false,
      "inputs": [
        {
          "indexed": true,
          "internalType": "address",
          "name": "previousOwner",
          "type": "address"
        },
        {
          "indexed": true,
          "internalType": "address",
          "name": "newOwner",
          "type": "address"
        }
      ],
      "name": "OwnershipTransferred",
      "type": "event"
    },
    {
      "anonymous": false,
      "inputs": [
        {
          "indexed": true,
          "internalType": "address",
          "name": "operator",
          "type": "address"
        },
        {
          "indexed": true,
          "internalType": "address",
          "name": "from",
          "type": "address"
        },
        {
          "indexed": true,
          "internalType": "address",
          "name": "to",
          "type": "address"
        },
        {
          "indexed": false,
          "internalType": "uint256[]",
          "name": "ids",
          "type": "uint256[]"
        },
        {
          "indexed": false,
          "internalType": "uint256[]",
          "name": "values",
          "type": "uint256[]"
        }
      ],
      "name": "TransferBatch",
      "type": "event"
    },
    {
      "anonymous": false,
      "inputs": [
        {
          "indexed": true,
          "internalType": "address",
          "name": "operator",
          "type": "address"
        },
        {
          "indexed": true,
          "internalType": "address",
          "name": "from",
          "type": "address"
        },
        {
          "indexed": true,
          "internalType": "address",
          "name": "to",
          "type": "address"
        },
        {
          "indexed": false,
          "internalType": "uint256",
          "name": "id",
          "type": "uint256"
        },
        {
          "indexed": false,
          "internalType": "uint256",
          "name": "value",
          "type": "uint256"
        }
      ],
      "name": "TransferSingle",
      "type": "event"
    },
    {
      "anonymous": false,
      "inputs": [
        {
          "indexed": false,
          "internalType": "string",
          "name": "value",
          "type": "string"
        },
        {
          "indexed": true,
          "internalType": "uint256",
          "name": "id",
          "type": "uint256"
        }
      ],
      "name": "URI",
      "type": "event"
    },
    {
      "inputs": [
        {
          "internalType": "address",
          "name": "account",
          "type": "address"
        },
        {
          "internalType": "uint256",
          "name": "id",
          "type": "uint256"
        }
      ],
      "name": "balanceOf",
      "outputs": [
        {
          "internalType": "uint256",
          "name": "",
          "type": "uint256"
        }
      ],
      "stateMutability": "view",
      "type": "function"
    },
    {
      "inputs": [
        {
          "internalType": "address[]",
          "name": "accounts",
          "type": "address[]"
        },
        {
          "internalType": "uint256[]",
          "name": "ids",
          "type": "uint256[]"
        }
      ],
      "name": "balanceOfBatch",
      "outputs": [
        {
          "internalType": "uint256[]",
          "name": "",
          "type": "uint256[]"
        }
      ],
      "stateMutability": "view",
      "type": "function"
    },
    {
      "inputs": [],
      "name": "baseURI",
      "outputs": [
        {
          "internalType": "string",
          "name": "",
          "type": "string"
        }
      ],
      "stateMutability": "view",
      "type": "function"
    },
    {
      "inputs": [
        {
          "internalType": "uint256",
          "name": "id",
          "type": "uint256"
        }
      ],
      "name": "exists",
      "outputs": [
        {
          "internalType": "bool",
          "name": "",
          "type": "bool"
        }
      ],
      "stateMutability": "view",
      "type": "function"
    },
    {
      "inputs": [
        {
          "internalType": "address",
          "name": "account",
          "type": "address"
        },
        {
          "internalType": "address",
          "name": "operator",
          "type": "address"
        }
      ],
      "name": "isApprovedForAll",
      "outputs": [
        {
          "internalType": "bool",
          "name": "",
          "type": "bool"
        }
      ],
      "stateMutability": "view",
      "type": "function"
    },
    {
      "inputs": [
        {
          "internalType": "uint256",
          "name": "_id",
          "type": "uint256"
        },
        {
          "internalType": "uint256",
          "name": "_quantity",
          "type": "uint256"
        }
      ],
      "name": "mint",
      "outputs": [],
      "stateMutability": "payable",
      "type": "function"
    },
    {
      "inputs": [],
      "name": "owner",
      "outputs": [
        {
          "internalType": "address",
          "name": "",
          "type": "address"
        }
      ],
      "stateMutability": "view",
      "type": "function"
    },
    {
      "inputs": [],
      "name": "renounceOwnership",
      "outputs": [],
      "stateMutability": "nonpayable",
      "type": "function"
    },
    {
      "inputs": [
        {
          "internalType": "address",
          "name": "from",
          "type": "address"
        },
        {
          "internalType": "address",
          "name": "to",
          "type": "address"
        },
        {
          "internalType": "uint256[]",
          "name": "ids",
          "type": "uint256[]"
        },
        {
          "internalType": "uint256[]",
          "name": "amounts",
          "type": "uint256[]"
        },
        {
          "internalType": "bytes",
          "name": "data",
          "type": "bytes"
        }
      ],
      "name": "safeBatchTransferFrom",
      "outputs": [],
      "stateMutability": "nonpayable",
      "type": "function"
    },
    {
      "inputs": [
        {
          "internalType": "address",
          "name": "from",
          "type": "address"
        },
        {
          "internalType": "address",
          "name": "to",
          "type": "address"
        },
        {
          "internalType": "uint256",
          "name": "id",
          "type": "uint256"
        },
        {
          "internalType": "uint256",
          "name": "amount",
          "type": "uint256"
        },
        {
          "internalType": "bytes",
          "name": "data",
          "type": "bytes"
        }
      ],
      "name": "safeTransferFrom",
      "outputs": [],
      "stateMutability": "nonpayable",
      "type": "function"
    },
    {
      "inputs": [
        {
          "internalType": "address",
          "name": "operator",
          "type": "address"
        },
        {
          "internalType": "bool",
          "name": "approved",
          "type": "bool"
        }
      ],
      "name": "setApprovalForAll",
      "outputs": [],
      "stateMutability": "nonpayable",
      "type": "function"
    },
    {
      "inputs": [
        {
          "internalType": "string",
          "name": "_baseURI",
          "type": "string"
        }
      ],
      "name": "setBaseURI",
      "outputs": [],
      "stateMutability": "nonpayable",
      "type": "function"
    },
    {
      "inputs": [
        {
          "internalType": "uint256",
          "name": "_typeId",
          "type": "uint256"
        },
        {
          "internalType": "bool",
          "name": "_valid",
          "type": "bool"
        }
      ],
      "name": "setValidTypeId",
      "outputs": [],
      "stateMutability": "nonpayable",
      "type": "function"
    },
    {
      "inputs": [
        {
          "internalType": "bytes4",
          "name": "interfaceId",
          "type": "bytes4"
        }
      ],
      "name": "supportsInterface",
      "outputs": [
        {
          "internalType": "bool",
          "name": "",
          "type": "bool"
        }
      ],
      "stateMutability": "view",
      "type": "function"
    },
    {
      "inputs": [
        {
          "internalType": "uint256",
          "name": "id",
          "type": "uint256"
        }
      ],
      "name": "totalSupply",
      "outputs": [
        {
          "internalType": "uint256",
          "name": "",
          "type": "uint256"
        }
      ],
      "stateMutability": "view",
      "type": "function"
    },
    {
      "inputs": [
        {
          "internalType": "address",
          "name": "newOwner",
          "type": "address"
        }
      ],
      "name": "transferOwnership",
      "outputs": [],
      "stateMutability": "nonpayable",
      "type": "function"
    },
    {
      "inputs": [
        {
          "internalType": "uint256",
          "name": "id",
          "type": "uint256"
        }
      ],
      "name": "uri",
      "outputs": [
        {
          "internalType": "string",
          "name": "",
          "type": "string"
        }
      ],
      "stateMutability": "view",
      "type": "function"
    },
    {
      "inputs": [
        {
          "internalType": "uint256",
          "name": "",
          "type": "uint256"
        }
      ],
      "name": "validTypeIds",
      "outputs": [
        {
          "internalType": "bool",
          "name": "",
          "type": "bool"
        }
      ],
      "stateMutability": "view",
      "type": "function"
    },
    {
      "inputs": [],
      "name": "withdraw",
      "outputs": [],
      "stateMutability": "nonpayable",
      "type": "function"
    }
  ],
  "bytecode": "0x6080604052600260075567016345785d8a00006008556113886009553480156200002857600080fd5b50604051806020016040528060008152506200004a816200007160201b60201c565b506200006b6200005f6200008d60201b60201c565b6200009560201b60201c565b62000270565b8060029080519060200190620000899291906200015b565b5050565b600033905090565b6000600460009054906101000a900473ffffffffffffffffffffffffffffffffffffffff16905081600460006101000a81548173ffffffffffffffffffffffffffffffffffffffff021916908373ffffffffffffffffffffffffffffffffffffffff1602179055508173ffffffffffffffffffffffffffffffffffffffff168173ffffffffffffffffffffffffffffffffffffffff167f8be0079c531659141344cd1fd0a4f28419497f9722a3daafe3b4186f6b6457e060405160405180910390a35050565b82805462000169906200020b565b90600052602060002090601f0160209004810192826200018d5760008555620001d9565b82601f10620001a857805160ff1916838001178555620001d9565b82800160010185558215620001d9579182015b82811115620001d8578251825591602001919060010190620001bb565b5b509050620001e89190620001ec565b5090565b5b8082111562000207576000816000905550600101620001ed565b5090565b600060028204905060018216806200022457607f821691505b602082108114156200023b576200023a62000241565b5b50919050565b7f4e487b7100000000000000000000000000000000000000000000000000000000600052602260045260246000fd5b613c5e80620002806000396000f3fe6080604052600436106101135760003560e01c80636c0360eb116100a0578063bd85b03911610064578063bd85b039146103a1578063c4bccd84146103de578063e985e9c514610407578063f242432a14610444578063f2fde38b1461046d57610113565b80636c0360eb146102ce578063715018a6146102f9578063806e1fc8146103105780638da5cb5b1461034d578063a22cb4651461037857610113565b80632eb2c2d6116100e75780632eb2c2d6146101eb5780633ccfd60b146102145780634e1273f41461022b5780634f558e791461026857806355f804b3146102a557610113565b8062fdd58e1461011857806301ffc9a7146101555780630e89341c146101925780631b2ef1ca146101cf575b600080fd5b34801561012457600080fd5b5061013f600480360381019061013a9190612711565b610496565b60405161014c9190613103565b60405180910390f35b34801561016157600080fd5b5061017c600480360381019061017791906127b9565b61055f565b6040516101899190612ea6565b60405180910390f35b34801561019e57600080fd5b506101b960048036038101906101b4919061284c565b610641565b6040516101c69190612ec1565b60405180910390f35b6101e960048036038101906101e491906128b1565b6106d5565b005b3480156101f757600080fd5b50610212600480360381019061020d9190612587565b610847565b005b34801561022057600080fd5b506102296108e8565b005b34801561023757600080fd5b50610252600480360381019061024d919061274d565b610968565b60405161025f9190612e4d565b60405180910390f35b34801561027457600080fd5b5061028f600480360381019061028a919061284c565b610b19565b60405161029c9190612ea6565b60405180910390f35b3480156102b157600080fd5b506102cc60048036038101906102c7919061280b565b610b2d565b005b3480156102da57600080fd5b506102e3610b4f565b6040516102f09190612ec1565b60405180910390f35b34801561030557600080fd5b5061030e610bdd565b005b34801561031c57600080fd5b506103376004803603810190610332919061284c565b610bf1565b6040516103449190612ea6565b60405180910390f35b34801561035957600080fd5b50610362610c11565b60405161036f9190612d70565b60405180910390f35b34801561038457600080fd5b5061039f600480360381019061039a91906126d5565b610c3b565b005b3480156103ad57600080fd5b506103c860048036038101906103c3919061284c565b610c51565b6040516103d59190613103565b60405180910390f35b3480156103ea57600080fd5b5061040560048036038101906104009190612875565b610c6e565b005b34801561041357600080fd5b5061042e6004803603810190610429919061254b565b610ca5565b60405161043b9190612ea6565b60405180910390f35b34801561045057600080fd5b5061046b60048036038101906104669190612646565b610d39565b005b34801561047957600080fd5b50610494600480360381019061048f9190612522565b610dda565b005b60008073ffffffffffffffffffffffffffffffffffffffff168373ffffffffffffffffffffffffffffffffffffffff161415610507576040517f08c379a00000000000000000000000000000000000000000000000000000000081526004016104fe90612f83565b60405180910390fd5b60008083815260200190815260200160002060008473ffffffffffffffffffffffffffffffffffffffff1673ffffffffffffffffffffffffffffffffffffffff16815260200190815260200160002054905092915050565b60007fd9b67a26000000000000000000000000000000000000000000000000000000007bffffffffffffffffffffffffffffffffffffffffffffffffffffffff1916827bffffffffffffffffffffffffffffffffffffffffffffffffffffffff1916148061062a57507f0e89341c000000000000000000000000000000000000000000000000000000007bffffffffffffffffffffffffffffffffffffffffffffffffffffffff1916827bffffffffffffffffffffffffffffffffffffffffffffffffffffffff1916145b8061063a575061063982610e5e565b5b9050919050565b60606006600083815260200190815260200160002060009054906101000a900460ff166106a3576040517f08c379a000000000000000000000000000000000000000000000000000000000815260040161069a90613043565b60405180910390fd5b60056106ae83610ec8565b6040516020016106bf929190612d37565b6040516020818303038152906040529050919050565b6006600083815260200190815260200160002060009054906101000a900460ff16610735576040517f08c379a000000000000000000000000000000000000000000000000000000000815260040161072c90613043565b60405180910390fd5b600854816107439190613349565b3414610784576040517f08c379a000000000000000000000000000000000000000000000000000000000815260040161077b906130e3565b60405180910390fd5b6007548111156107c9576040517f08c379a00000000000000000000000000000000000000000000000000000000081526004016107c090612f43565b60405180910390fd5b600954816107d684610c51565b6107e091906132c2565b1115610821576040517f08c379a000000000000000000000000000000000000000000000000000000000815260040161081890613003565b60405180910390fd5b61084361082c611075565b83836040518060200160405280600081525061107d565b5050565b61084f611075565b73ffffffffffffffffffffffffffffffffffffffff168573ffffffffffffffffffffffffffffffffffffffff16148061089557506108948561088f611075565b610ca5565b5b6108d4576040517f08c379a00000000000000000000000000000000000000000000000000000000081526004016108cb90612f03565b60405180910390fd5b6108e1858585858561122e565b5050505050565b6108f061159c565b60004790506108fd611075565b73ffffffffffffffffffffffffffffffffffffffff168160405161092090612d5b565b60006040518083038185875af1925050503d806000811461095d576040519150601f19603f3d011682016040523d82523d6000602084013e610962565b606091505b50505050565b606081518351146109ae576040517f08c379a00000000000000000000000000000000000000000000000000000000081526004016109a590613083565b60405180910390fd5b6000835167ffffffffffffffff8111156109f1577f4e487b7100000000000000000000000000000000000000000000000000000000600052604160045260246000fd5b604051908082528060200260200182016040528015610a1f5781602001602082028036833780820191505090505b50905060005b8451811015610b0e57610ab8858281518110610a6a577f4e487b7100000000000000000000000000000000000000000000000000000000600052603260045260246000fd5b6020026020010151858381518110610aab577f4e487b7100000000000000000000000000000000000000000000000000000000600052603260045260246000fd5b6020026020010151610496565b828281518110610af1577f4e487b7100000000000000000000000000000000000000000000000000000000600052603260045260246000fd5b60200260200101818152505080610b07906134f0565b9050610a25565b508091505092915050565b600080610b2583610c51565b119050919050565b610b3561159c565b8060059080519060200190610b4b92919061221a565b5050565b60058054610b5c9061348d565b80601f0160208091040260200160405190810160405280929190818152602001828054610b889061348d565b8015610bd55780601f10610baa57610100808354040283529160200191610bd5565b820191906000526020600020905b815481529060010190602001808311610bb857829003601f168201915b505050505081565b610be561159c565b610bef600061161a565b565b60066020528060005260406000206000915054906101000a900460ff1681565b6000600460009054906101000a900473ffffffffffffffffffffffffffffffffffffffff16905090565b610c4d610c46611075565b83836116e0565b5050565b600060036000838152602001908152602001600020549050919050565b610c7661159c565b806006600084815260200190815260200160002060006101000a81548160ff0219169083151502179055505050565b6000600160008473ffffffffffffffffffffffffffffffffffffffff1673ffffffffffffffffffffffffffffffffffffffff16815260200190815260200160002060008373ffffffffffffffffffffffffffffffffffffffff1673ffffffffffffffffffffffffffffffffffffffff16815260200190815260200160002060009054906101000a900460ff16905092915050565b610d41611075565b73ffffffffffffffffffffffffffffffffffffffff168573ffffffffffffffffffffffffffffffffffffffff161480610d875750610d8685610d81611075565b610ca5565b5b610dc6576040517f08c379a0000000000000000000000000000000000000000000000000000000008152600401610dbd90612f03565b60405180910390fd5b610dd3858585858561184d565b5050505050565b610de261159c565b600073ffffffffffffffffffffffffffffffffffffffff168173ffffffffffffffffffffffffffffffffffffffff161415610e52576040517f08c379a0000000000000000000000000000000000000000000000000000000008152600401610e4990612f63565b60405180910390fd5b610e5b8161161a565b50565b60007f01ffc9a7000000000000000000000000000000000000000000000000000000007bffffffffffffffffffffffffffffffffffffffffffffffffffffffff1916827bffffffffffffffffffffffffffffffffffffffffffffffffffffffff1916149050919050565b60606000821415610f10576040518060400160405280600181526020017f30000000000000000000000000000000000000000000000000000000000000008152509050611070565b600082905060005b60008214610f42578080610f2b906134f0565b915050600a82610f3b9190613318565b9150610f18565b60008167ffffffffffffffff811115610f84577f4e487b7100000000000000000000000000000000000000000000000000000000600052604160045260246000fd5b6040519080825280601f01601f191660200182016040528015610fb65781602001600182028036833780820191505090505b5090505b6000851461106957600182610fcf91906133a3565b9150600a85610fde9190613539565b6030610fea91906132c2565b60f81b818381518110611026577f4e487b7100000000000000000000000000000000000000000000000000000000600052603260045260246000fd5b60200101907effffffffffffffffffffffffffffffffffffffffffffffffffffffffffffff1916908160001a905350600a856110629190613318565b9450610fba565b8093505050505b919050565b600033905090565b600073ffffffffffffffffffffffffffffffffffffffff168473ffffffffffffffffffffffffffffffffffffffff1614156110ed576040517f08c379a00000000000000000000000000000000000000000000000000000000081526004016110e4906130c3565b60405180910390fd5b60006110f7611075565b9050600061110485611ae9565b9050600061111185611ae9565b905061112283600089858589611baf565b8460008088815260200190815260200160002060008973ffffffffffffffffffffffffffffffffffffffff1673ffffffffffffffffffffffffffffffffffffffff168152602001908152602001600020600082825461118191906132c2565b925050819055508673ffffffffffffffffffffffffffffffffffffffff16600073ffffffffffffffffffffffffffffffffffffffff168473ffffffffffffffffffffffffffffffffffffffff167fc3d58168c5ae7397731d063d5bbf3d657854427343f4c083240f7aacaa2d0f6289896040516111ff92919061311e565b60405180910390a461121683600089858589611e19565b61122583600089898989611e21565b50505050505050565b8151835114611272576040517f08c379a0000000000000000000000000000000000000000000000000000000008152600401611269906130a3565b60405180910390fd5b600073ffffffffffffffffffffffffffffffffffffffff168473ffffffffffffffffffffffffffffffffffffffff1614156112e2576040517f08c379a00000000000000000000000000000000000000000000000000000000081526004016112d990612fa3565b60405180910390fd5b60006112ec611075565b90506112fc818787878787611baf565b60005b84518110156114f9576000858281518110611343577f4e487b7100000000000000000000000000000000000000000000000000000000600052603260045260246000fd5b602002602001015190506000858381518110611388577f4e487b7100000000000000000000000000000000000000000000000000000000600052603260045260246000fd5b60200260200101519050600080600084815260200190815260200160002060008b73ffffffffffffffffffffffffffffffffffffffff1673ffffffffffffffffffffffffffffffffffffffff16815260200190815260200160002054905081811015611429576040517f08c379a000000000000000000000000000000000000000000000000000000000815260040161142090612fc3565b60405180910390fd5b81810360008085815260200190815260200160002060008c73ffffffffffffffffffffffffffffffffffffffff1673ffffffffffffffffffffffffffffffffffffffff168152602001908152602001600020819055508160008085815260200190815260200160002060008b73ffffffffffffffffffffffffffffffffffffffff1673ffffffffffffffffffffffffffffffffffffffff16815260200190815260200160002060008282546114de91906132c2565b92505081905550505050806114f2906134f0565b90506112ff565b508473ffffffffffffffffffffffffffffffffffffffff168673ffffffffffffffffffffffffffffffffffffffff168273ffffffffffffffffffffffffffffffffffffffff167f4a39dc06d4c0dbc64b70af90fd698a233a518aa5d07e595d983b8c0526c8f7fb8787604051611570929190612e6f565b60405180910390a4611586818787878787611e19565b611594818787878787612008565b505050505050565b6115a4611075565b73ffffffffffffffffffffffffffffffffffffffff166115c2610c11565b73ffffffffffffffffffffffffffffffffffffffff1614611618576040517f08c379a000000000000000000000000000000000000000000000000000000000815260040161160f90612fe3565b60405180910390fd5b565b6000600460009054906101000a900473ffffffffffffffffffffffffffffffffffffffff16905081600460006101000a81548173ffffffffffffffffffffffffffffffffffffffff021916908373ffffffffffffffffffffffffffffffffffffffff1602179055508173ffffffffffffffffffffffffffffffffffffffff168173ffffffffffffffffffffffffffffffffffffffff167f8be0079c531659141344cd1fd0a4f28419497f9722a3daafe3b4186f6b6457e060405160405180910390a35050565b8173ffffffffffffffffffffffffffffffffffffffff168373ffffffffffffffffffffffffffffffffffffffff16141561174f576040517f08c379a000000000000000000000000000000000000000000000000000000000815260040161174690613063565b60405180910390fd5b80600160008573ffffffffffffffffffffffffffffffffffffffff1673ffffffffffffffffffffffffffffffffffffffff16815260200190815260200160002060008473ffffffffffffffffffffffffffffffffffffffff1673ffffffffffffffffffffffffffffffffffffffff16815260200190815260200160002060006101000a81548160ff0219169083151502179055508173ffffffffffffffffffffffffffffffffffffffff168373ffffffffffffffffffffffffffffffffffffffff167f17307eab39ab6107e8899845ad3d59bd9653f200f220920489ca2b5937696c31836040516118409190612ea6565b60405180910390a3505050565b600073ffffffffffffffffffffffffffffffffffffffff168473ffffffffffffffffffffffffffffffffffffffff1614156118bd576040517f08c379a00000000000000000000000000000000000000000000000000000000081526004016118b490612fa3565b60405180910390fd5b60006118c7611075565b905060006118d485611ae9565b905060006118e185611ae9565b90506118f1838989858589611baf565b600080600088815260200190815260200160002060008a73ffffffffffffffffffffffffffffffffffffffff1673ffffffffffffffffffffffffffffffffffffffff16815260200190815260200160002054905085811015611988576040517f08c379a000000000000000000000000000000000000000000000000000000000815260040161197f90612fc3565b60405180910390fd5b85810360008089815260200190815260200160002060008b73ffffffffffffffffffffffffffffffffffffffff1673ffffffffffffffffffffffffffffffffffffffff168152602001908152602001600020819055508560008089815260200190815260200160002060008a73ffffffffffffffffffffffffffffffffffffffff1673ffffffffffffffffffffffffffffffffffffffff1681526020019081526020016000206000828254611a3d91906132c2565b925050819055508773ffffffffffffffffffffffffffffffffffffffff168973ffffffffffffffffffffffffffffffffffffffff168573ffffffffffffffffffffffffffffffffffffffff167fc3d58168c5ae7397731d063d5bbf3d657854427343f4c083240f7aacaa2d0f628a8a604051611aba92919061311e565b60405180910390a4611ad0848a8a86868a611e19565b611ade848a8a8a8a8a611e21565b505050505050505050565b60606000600167ffffffffffffffff811115611b2e577f4e487b7100000000000000000000000000000000000000000000000000000000600052604160045260246000fd5b604051908082528060200260200182016040528015611b5c5781602001602082028036833780820191505090505b5090508281600081518110611b9a577f4e487b7100000000000000000000000000000000000000000000000000000000600052603260045260246000fd5b60200260200101818152505080915050919050565b611bbd8686868686866121ef565b600073ffffffffffffffffffffffffffffffffffffffff168573ffffffffffffffffffffffffffffffffffffffff161415611cbb5760005b8351811015611cb957828181518110611c37577f4e487b7100000000000000000000000000000000000000000000000000000000600052603260045260246000fd5b602002602001015160036000868481518110611c7c577f4e487b7100000000000000000000000000000000000000000000000000000000600052603260045260246000fd5b602002602001015181526020019081526020016000206000828254611ca191906132c2565b9250508190555080611cb2906134f0565b9050611bf5565b505b600073ffffffffffffffffffffffffffffffffffffffff168473ffffffffffffffffffffffffffffffffffffffff161415611e115760005b8351811015611e0f576000848281518110611d37577f4e487b7100000000000000000000000000000000000000000000000000000000600052603260045260246000fd5b602002602001015190506000848381518110611d7c577f4e487b7100000000000000000000000000000000000000000000000000000000600052603260045260246000fd5b6020026020010151905060006003600084815260200190815260200160002054905081811015611de1576040517f08c379a0000000000000000000000000000000000000000000000000000000008152600401611dd890613023565b60405180910390fd5b818103600360008581526020019081526020016000208190555050505080611e08906134f0565b9050611cf3565b505b505050505050565b505050505050565b611e408473ffffffffffffffffffffffffffffffffffffffff166121f7565b15612000578373ffffffffffffffffffffffffffffffffffffffff1663f23a6e6187878686866040518663ffffffff1660e01b8152600401611e86959493929190612df3565b602060405180830381600087803b158015611ea057600080fd5b505af1925050508015611ed157506040513d601f19601f82011682018060405250810190611ece91906127e2565b60015b611f7757611edd613626565b806308c379a01415611f3a5750611ef2613b36565b80611efd5750611f3c565b806040517f08c379a0000000000000000000000000000000000000000000000000000000008152600401611f319190612ec1565b60405180910390fd5b505b6040517f08c379a0000000000000000000000000000000000000000000000000000000008152600401611f6e90612ee3565b60405180910390fd5b63f23a6e6160e01b7bffffffffffffffffffffffffffffffffffffffffffffffffffffffff1916817bffffffffffffffffffffffffffffffffffffffffffffffffffffffff191614611ffe576040517f08c379a0000000000000000000000000000000000000000000000000000000008152600401611ff590612f23565b60405180910390fd5b505b505050505050565b6120278473ffffffffffffffffffffffffffffffffffffffff166121f7565b156121e7578373ffffffffffffffffffffffffffffffffffffffff1663bc197c8187878686866040518663ffffffff1660e01b815260040161206d959493929190612d8b565b602060405180830381600087803b15801561208757600080fd5b505af19250505080156120b857506040513d601f19601f820116820180604052508101906120b591906127e2565b60015b61215e576120c4613626565b806308c379a0141561212157506120d9613b36565b806120e45750612123565b806040517f08c379a00000000000000000000000000000000000000000000000000000000081526004016121189190612ec1565b60405180910390fd5b505b6040517f08c379a000000000000000000000000000000000000000000000000000000000815260040161215590612ee3565b60405180910390fd5b63bc197c8160e01b7bffffffffffffffffffffffffffffffffffffffffffffffffffffffff1916817bffffffffffffffffffffffffffffffffffffffffffffffffffffffff1916146121e5576040517f08c379a00000000000000000000000000000000000000000000000000000000081526004016121dc90612f23565b60405180910390fd5b505b505050505050565b505050505050565b6000808273ffffffffffffffffffffffffffffffffffffffff163b119050919050565b8280546122269061348d565b90600052602060002090601f016020900481019282612248576000855561228f565b82601f1061226157805160ff191683800117855561228f565b8280016001018555821561228f579182015b8281111561228e578251825591602001919060010190612273565b5b50905061229c91906122a0565b5090565b5b808211156122b95760008160009055506001016122a1565b5090565b60006122d06122cb8461316c565b613147565b905080838252602082019050828560208602820111156122ef57600080fd5b60005b8581101561231f57816123058882612411565b8452602084019350602083019250506001810190506122f2565b5050509392505050565b600061233c61233784613198565b613147565b9050808382526020820190508285602086028201111561235b57600080fd5b60005b8581101561238b5781612371888261250d565b84526020840193506020830192505060018101905061235e565b5050509392505050565b60006123a86123a3846131c4565b613147565b9050828152602081018484840111156123c057600080fd5b6123cb84828561344b565b509392505050565b60006123e66123e1846131f5565b613147565b9050828152602081018484840111156123fe57600080fd5b61240984828561344b565b509392505050565b60008135905061242081613bcc565b92915050565b600082601f83011261243757600080fd5b81356124478482602086016122bd565b91505092915050565b600082601f83011261246157600080fd5b8135612471848260208601612329565b91505092915050565b60008135905061248981613be3565b92915050565b60008135905061249e81613bfa565b92915050565b6000815190506124b381613bfa565b92915050565b600082601f8301126124ca57600080fd5b81356124da848260208601612395565b91505092915050565b600082601f8301126124f457600080fd5b81356125048482602086016123d3565b91505092915050565b60008135905061251c81613c11565b92915050565b60006020828403121561253457600080fd5b600061254284828501612411565b91505092915050565b6000806040838503121561255e57600080fd5b600061256c85828601612411565b925050602061257d85828601612411565b9150509250929050565b600080600080600060a0868803121561259f57600080fd5b60006125ad88828901612411565b95505060206125be88828901612411565b945050604086013567ffffffffffffffff8111156125db57600080fd5b6125e788828901612450565b935050606086013567ffffffffffffffff81111561260457600080fd5b61261088828901612450565b925050608086013567ffffffffffffffff81111561262d57600080fd5b612639888289016124b9565b9150509295509295909350565b600080600080600060a0868803121561265e57600080fd5b600061266c88828901612411565b955050602061267d88828901612411565b945050604061268e8882890161250d565b935050606061269f8882890161250d565b925050608086013567ffffffffffffffff8111156126bc57600080fd5b6126c8888289016124b9565b9150509295509295909350565b600080604083850312156126e857600080fd5b60006126f685828601612411565b92505060206127078582860161247a565b9150509250929050565b6000806040838503121561272457600080fd5b600061273285828601612411565b92505060206127438582860161250d565b9150509250929050565b6000806040838503121561276057600080fd5b600083013567ffffffffffffffff81111561277a57600080fd5b61278685828601612426565b925050602083013567ffffffffffffffff8111156127a357600080fd5b6127af85828601612450565b9150509250929050565b6000602082840312156127cb57600080fd5b60006127d98482850161248f565b91505092915050565b6000602082840312156127f457600080fd5b6000612802848285016124a4565b91505092915050565b60006020828403121561281d57600080fd5b600082013567ffffffffffffffff81111561283757600080fd5b612843848285016124e3565b91505092915050565b60006020828403121561285e57600080fd5b600061286c8482850161250d565b91505092915050565b6000806040838503121561288857600080fd5b60006128968582860161250d565b92505060206128a78582860161247a565b9150509250929050565b600080604083850312156128c457600080fd5b60006128d28582860161250d565b92505060206128e38582860161250d565b9150509250929050565b60006128f98383612d19565b60208301905092915050565b61290e816133d7565b82525050565b600061291f8261324b565b6129298185613279565b935061293483613226565b8060005b8381101561296557815161294c88826128ed565b97506129578361326c565b925050600181019050612938565b5085935050505092915050565b61297b816133e9565b82525050565b600061298c82613256565b612996818561328a565b93506129a681856020860161345a565b6129af81613648565b840191505092915050565b60006129c582613261565b6129cf81856132a6565b93506129df81856020860161345a565b6129e881613648565b840191505092915050565b60006129fe82613261565b612a0881856132b7565b9350612a1881856020860161345a565b80840191505092915050565b60008154612a318161348d565b612a3b81866132b7565b94506001821660008114612a565760018114612a6757612a9a565b60ff19831686528186019350612a9a565b612a7085613236565b60005b83811015612a9257815481890152600182019150602081019050612a73565b838801955050505b50505092915050565b6000612ab06034836132a6565b9150612abb82613666565b604082019050919050565b6000612ad3602f836132a6565b9150612ade826136b5565b604082019050919050565b6000612af66028836132a6565b9150612b0182613704565b604082019050919050565b6000612b196032836132a6565b9150612b2482613753565b604082019050919050565b6000612b3c6026836132a6565b9150612b47826137a2565b604082019050919050565b6000612b5f602a836132a6565b9150612b6a826137f1565b604082019050919050565b6000612b826025836132a6565b9150612b8d82613840565b604082019050919050565b6000612ba5602a836132a6565b9150612bb08261388f565b604082019050919050565b6000612bc86020836132a6565b9150612bd3826138de565b602082019050919050565b6000612beb6023836132a6565b9150612bf682613907565b604082019050919050565b6000612c0e6028836132a6565b9150612c1982613956565b604082019050919050565b6000612c3160008361329b565b9150612c3c826139a5565b600082019050919050565b6000612c546013836132a6565b9150612c5f826139a8565b602082019050919050565b6000612c776029836132a6565b9150612c82826139d1565b604082019050919050565b6000612c9a6029836132a6565b9150612ca582613a20565b604082019050919050565b6000612cbd6028836132a6565b9150612cc882613a6f565b604082019050919050565b6000612ce06021836132a6565b9150612ceb82613abe565b604082019050919050565b6000612d03601b836132a6565b9150612d0e82613b0d565b602082019050919050565b612d2281613441565b82525050565b612d3181613441565b82525050565b6000612d438285612a24565b9150612d4f82846129f3565b91508190509392505050565b6000612d6682612c24565b9150819050919050565b6000602082019050612d856000830184612905565b92915050565b600060a082019050612da06000830188612905565b612dad6020830187612905565b8181036040830152612dbf8186612914565b90508181036060830152612dd38185612914565b90508181036080830152612de78184612981565b90509695505050505050565b600060a082019050612e086000830188612905565b612e156020830187612905565b612e226040830186612d28565b612e2f6060830185612d28565b8181036080830152612e418184612981565b90509695505050505050565b60006020820190508181036000830152612e678184612914565b905092915050565b60006040820190508181036000830152612e898185612914565b90508181036020830152612e9d8184612914565b90509392505050565b6000602082019050612ebb6000830184612972565b92915050565b60006020820190508181036000830152612edb81846129ba565b905092915050565b60006020820190508181036000830152612efc81612aa3565b9050919050565b60006020820190508181036000830152612f1c81612ac6565b9050919050565b60006020820190508181036000830152612f3c81612ae9565b9050919050565b60006020820190508181036000830152612f5c81612b0c565b9050919050565b60006020820190508181036000830152612f7c81612b2f565b9050919050565b60006020820190508181036000830152612f9c81612b52565b9050919050565b60006020820190508181036000830152612fbc81612b75565b9050919050565b60006020820190508181036000830152612fdc81612b98565b9050919050565b60006020820190508181036000830152612ffc81612bbb565b9050919050565b6000602082019050818103600083015261301c81612bde565b9050919050565b6000602082019050818103600083015261303c81612c01565b9050919050565b6000602082019050818103600083015261305c81612c47565b9050919050565b6000602082019050818103600083015261307c81612c6a565b9050919050565b6000602082019050818103600083015261309c81612c8d565b9050919050565b600060208201905081810360008301526130bc81612cb0565b9050919050565b600060208201905081810360008301526130dc81612cd3565b9050919050565b600060208201905081810360008301526130fc81612cf6565b9050919050565b60006020820190506131186000830184612d28565b92915050565b60006040820190506131336000830185612d28565b6131406020830184612d28565b9392505050565b6000613151613162565b905061315d82826134bf565b919050565b6000604051905090565b600067ffffffffffffffff821115613187576131866135f7565b5b602082029050602081019050919050565b600067ffffffffffffffff8211156131b3576131b26135f7565b5b602082029050602081019050919050565b600067ffffffffffffffff8211156131df576131de6135f7565b5b6131e882613648565b9050602081019050919050565b600067ffffffffffffffff8211156132105761320f6135f7565b5b61321982613648565b9050602081019050919050565b6000819050602082019050919050565b60008190508160005260206000209050919050565b600081519050919050565b600081519050919050565b600081519050919050565b6000602082019050919050565b600082825260208201905092915050565b600082825260208201905092915050565b600081905092915050565b600082825260208201905092915050565b600081905092915050565b60006132cd82613441565b91506132d883613441565b9250827fffffffffffffffffffffffffffffffffffffffffffffffffffffffffffffffff0382111561330d5761330c61356a565b5b828201905092915050565b600061332382613441565b915061332e83613441565b92508261333e5761333d613599565b5b828204905092915050565b600061335482613441565b915061335f83613441565b9250817fffffffffffffffffffffffffffffffffffffffffffffffffffffffffffffffff04831182151516156133985761339761356a565b5b828202905092915050565b60006133ae82613441565b91506133b983613441565b9250828210156133cc576133cb61356a565b5b828203905092915050565b60006133e282613421565b9050919050565b60008115159050919050565b60007fffffffff0000000000000000000000000000000000000000000000000000000082169050919050565b600073ffffffffffffffffffffffffffffffffffffffff82169050919050565b6000819050919050565b82818337600083830152505050565b60005b8381101561347857808201518184015260208101905061345d565b83811115613487576000848401525b50505050565b600060028204905060018216806134a557607f821691505b602082108114156134b9576134b86135c8565b5b50919050565b6134c882613648565b810181811067ffffffffffffffff821117156134e7576134e66135f7565b5b80604052505050565b60006134fb82613441565b91507fffffffffffffffffffffffffffffffffffffffffffffffffffffffffffffffff82141561352e5761352d61356a565b5b600182019050919050565b600061354482613441565b915061354f83613441565b92508261355f5761355e613599565b5b828206905092915050565b7f4e487b7100000000000000000000000000000000000000000000000000000000600052601160045260246000fd5b7f4e487b7100000000000000000000000000000000000000000000000000000000600052601260045260246000fd5b7f4e487b7100000000000000000000000000000000000000000000000000000000600052602260045260246000fd5b7f4e487b7100000000000000000000000000000000000000000000000000000000600052604160045260246000fd5b600060033d11156136455760046000803e613642600051613659565b90505b90565b6000601f19601f8301169050919050565b60008160e01c9050919050565b7f455243313135353a207472616e7366657220746f206e6f6e204552433131353560008201527f526563656976657220696d706c656d656e746572000000000000000000000000602082015250565b7f455243313135353a2063616c6c6572206973206e6f7420746f6b656e206f776e60008201527f6572206e6f7220617070726f7665640000000000000000000000000000000000602082015250565b7f455243313135353a204552433131353552656365697665722072656a6563746560008201527f6420746f6b656e73000000000000000000000000000000000000000000000000602082015250565b7f50757263686173653a2045786365656420746865206c696d69746174696f6e2060008201527f6f6620706572207472616e73616374696f6e0000000000000000000000000000602082015250565b7f4f776e61626c653a206e6577206f776e657220697320746865207a65726f206160008201527f6464726573730000000000000000000000000000000000000000000000000000602082015250565b7f455243313135353a2061646472657373207a65726f206973206e6f742061207660008201527f616c6964206f776e657200000000000000000000000000000000000000000000602082015250565b7f455243313135353a207472616e7366657220746f20746865207a65726f20616460008201527f6472657373000000000000000000000000000000000000000000000000000000602082015250565b7f455243313135353a20696e73756666696369656e742062616c616e636520666f60008201527f72207472616e7366657200000000000000000000000000000000000000000000602082015250565b7f4f776e61626c653a2063616c6c6572206973206e6f7420746865206f776e6572600082015250565b7f50757263686173653a204d617820746f74616c20737570706c7920657863656560008201527f6465640000000000000000000000000000000000000000000000000000000000602082015250565b7f455243313135353a206275726e20616d6f756e74206578636565647320746f7460008201527f616c537570706c79000000000000000000000000000000000000000000000000602082015250565b50565b7f56616c69643a204e6f742076616c696420696400000000000000000000000000600082015250565b7f455243313135353a2073657474696e6720617070726f76616c2073746174757360008201527f20666f722073656c660000000000000000000000000000000000000000000000602082015250565b7f455243313135353a206163636f756e747320616e6420696473206c656e67746860008201527f206d69736d617463680000000000000000000000000000000000000000000000602082015250565b7f455243313135353a2069647320616e6420616d6f756e7473206c656e6774682060008201527f6d69736d61746368000000000000000000000000000000000000000000000000602082015250565b7f455243313135353a206d696e7420746f20746865207a65726f2061646472657360008201527f7300000000000000000000000000000000000000000000000000000000000000602082015250565b7f50757263686173653a20496e636f7272656374207061796d656e740000000000600082015250565b600060443d1015613b4657613bc9565b613b4e613162565b60043d036004823e80513d602482011167ffffffffffffffff82111715613b76575050613bc9565b808201805167ffffffffffffffff811115613b945750505050613bc9565b80602083010160043d038501811115613bb1575050505050613bc9565b613bc0826020018501866134bf565b82955050505050505b90565b613bd5816133d7565b8114613be057600080fd5b50565b613bec816133e9565b8114613bf757600080fd5b50565b613c03816133f5565b8114613c0e57600080fd5b50565b613c1a81613441565b8114613c2557600080fd5b5056fea2646970667358221220d4212a7d9b1962f38e9fc31c18a1a8df1e68ac855919be3bacc9f577861e940b64736f6c63430008040033",
  "linkReferences": {},
  "deployedLinkReferences": {}
}